:020000040800F2
:10000000002800208D160008D1140008D71400081D
:10001000DD140008E3140008E914000800000000E3
:10002000000000000000000000000000EF140008C5
:10003000FB14000800000000071500081315000855
:10004000D5160008D5160008D5160008D5160008E4
:10005000D5160008D5160008D5160008D5160008D4
:10006000D5160008D5160008D5160008D5160008C4
:10007000D5160008D5160008D5160008D5160008B4
:10008000D5160008D5160008D5160008D5160008A4
:10009000D5160008D5160008D5160008D516000894
:1000A000D5160008D5160008D5160008D516000884
:1000B00021150008D516000800000000D51600081C
:1000C000D51600080000000000000000D51600084A
:1000D00000000000D5160008D5160008000000003A
:1000E000D5160008D5160008D51600080000000037
:1000F0000000000000000000000000000000000000
:0C01000000000000000000005FF808F1A3
:10010C0010B5054C237833B9044B13B10448AFF345
:10011C0000800123237010BDA4000020000000000B
:10012C001C2D000808B5034B1BB103490348AFF362
:10013C00008008BD00000000A80000201C2D000855
:10014C0080B500AF924B1B68032B00F2868001A296
:10015C0052F823F0710100088F010008D701000844
:10016C001F0200088B4B1B688B4A1360884B0122C3
:10017C001A6000F0A7FA884B1B68184600F03CFA8E
:10018C0072E0854B1B68002B69DD834B1B68013BC0
:10019C00814A1360804B1B68002B0EDC7F4B1B6865
:1001AC007F4A13607A4B02221A6000F09BFA7C4B58
:1001BC001B68184600F020FA51E000F083FA764BE9
:1001CC001B68184600F018FA49E0754B1B68002BA9
:1001DC0047DD734B1B68013B714A1360704B1B6806
:1001EC00002B0EDC6F4B1B686F4A1360684B0322AD
:1001FC001A6000F06FFA6C4B1B68184600F0FCF9A3
:10020C002FE000F06FFA664B1B68184600F0F4F90B
:10021C0027E0654B1B68002B25DD634B1B68013BFE
:10022C00614A1360604B1B68002B0EDC594B1B683A
:10023C00594A1360564B01221A6000F043FA564B90
:10024C001B68184600F0D8F90DE000F043FA564B45
:10025C001B68184600F0D0F905E000BF04E000BFB1
:10026C0002E000BF00E000BF504B1B68032B00F204
:10027C00868001A252F823F095020008B302000810
:10028C00FB02000843030008484B01221A60434B51
:10029C001B68474A136000F03DFA454B1B68184633
:1002AC0000F0B6F972E0424B1B68002B69DD404B45
:1002BC001B68013B3E4A13603D4B1B68002B0EDC58
:1002CC0000F020FA374B1B683A4A1360374B022276
:1002DC001A60384B1B68184600F09AF951E000F090
:1002EC0019FA334B1B68184600F092F949E0314B70
:1002FC001B68002B47DD2F4B1B68013B2D4A1360FD
:10030C002C4B1B68002B0EDC224B1B682A4A1360FB
:10031C00264B03221A6000F0EDF9274B1B68184698
:10032C0000F076F92FE000F0EDF9224B1B6818462F
:10033C0000F06EF927E0204B1B68002B25DD1E4BCF
:10034C001B68013B1C4A13601B4B1B68002B0EDC0B
:10035C00124B1B68164A1360144B01221A6000F0F2
:10036C00D9F9134B1B68184600F052F90DE000F058
:10037C00C1F9114B1B68184600F04AF905E000BFA3
:10038C0004E000BF02E000BF00E000BF00BF80BD82
:10039C00C00000200C000020E40000201000002011
:1003AC00D400002014000020D8000020C40000203D
:1003BC00E0000020DC000020D000002080B582B0DE
:1003CC0000AF00237B60ABE05A4A7B6852F82320D5
:1003DC0059497B6841F82320584A7B6852F82320FE
:1003EC0054497B6841F82320554A7B6852F82320F6
:1003FC0054497B6831F813301946104601F050FC13
:10040C00034619464D4A7B6842F823104A4A7B68DA
:10041C0052F8232047497B6851F823309A4277D110
:10042C00444A7B6852F8232044497B6851F82330B6
:10043C009A426DD1444A7B6852F823203E497B682E
:10044C0051F823309A4229D03F4A7B6852F8233026
:10045C00002B02D0012B11D05FE03B4A7B680121BD
:10046C0042F82310394A7B6852F82330002B51DDB7
:10047C00374A7B68002142F823104BE0324A7B68F4
:10048C00002142F82310334A7B68642142F8231080
:10049C002E4A7B68142142F823103EE02A4A7B68DE
:1004AC0052F82330002B01D0012B36E0294A7B680F
:1004BC0052F82330002B1BDD264A7B6852F8233080
:1004CC005A1E24497B6841F82320224A7B6852F843
:1004DC002330002B0CDC1E4A7B68002142F82310D1
:1004EC007B68012B04D11B4A7B680A2142F823103C
:1004FC00164A7B6852F82330002B0DDD134A7B68BB
:10050C0052F823305A1E11497B6841F8232003E02E
:10051C0000BF02E000BF00E000BF7B6801337B60DE
:10052C007B68022B7FF750AF00BF00BF0837BD467A
:10053C0080BD00BF44000020380000205000002087
:10054C0018000020240000202C0000207400002043
:10055C005C0000206800002080B483B000AF78609D
:10056C0039603B68032B39D03B68032B3ADC3B6882
:10057C00012B03D03B68022B18D033E07B681C4A5C
:10058C0082FB03129210DB17D31A1A4A1360796894
:10059C00174B83FB01239A10CB17D21A13469B00DF
:1005AC0013445B00CA1A134B5A601CE07B68104A58
:1005BC0082FB03129210DB17D31A0E4A93607968F0
:1005CC000B4B83FB01239A10CB17D21A13469B00BB
:1005DC0013445B00CA1A074BDA6004E0054A7B68D7
:1005EC00136100E000BF00BF0C37BD4680BC7047F4
:1005FC00676666668000002080B582B000AF7860C8
:10060C0001217868FFF7A8FF00BF0837BD4680BD01
:10061C0080B582B000AF786002217868FFF79CFF4C
:10062C0000BF0837BD4680BD80B582B000AF786092
:10063C0003217868FFF790FF00BF0837BD4680BDE7
:10064C0080B500AF00F0FAF900BF80BD80B500AFF7
:10065C000521082000F084FB0521092000F080FB17
:10066C0000BF80BD80B500AF0321082000F078FBEF
:10067C000321092000F074FB00BF80BD80B500AFE2
:10068C000421082000F06CFB0421092000F068FB19
:10069C0000BF80BD80B500AF0621082000F060FBD4
:1006AC000621092000F05CFB00BF80BD80B500AFC7
:1006BC000721082000F054FB0721092000F050FB13
:1006CC0000BF80BD80B500AF0021082000F048FBC2
:1006DC0000BF80BD80B500AF0221082000F040FBB8
:1006EC0000BF80BD80B500AF0121082000F038FBB1
:1006FC0000BF80BD80B500AF0021092000F030FBA9
:10070C0000BF80BD80B500AF0221092000F028FB9E
:10071C0000BF80BD80B500AF0121092000F020FB97
:10072C0000BF80BD80B582B000AF78607B68002BC5
:10073C0023D100220121C04801F0C9FA0022022174
:10074C00BD4801F0C4FA00220421BB4801F0BFFAF5
:10075C0000220821B84801F0BAFA00221021B6484C
:10076C0001F0B5FA00222021B34801F0B0FA0122C1
:10077C004021B14801F0ABFA5AE17B68012B23D13F
:10078C0001220121AC4801F0A2FA00220221AA4860
:10079C0001F09DFA00220421A74801F098FA0122E9
:1007AC000821A54801F093FA01221021A24801F07A
:1007BC008EFA01222021A04801F089FA0122402161
:1007CC009D4801F084FA33E17B68022B23D100228F
:1007DC000121994801F07BFA00220221964801F090
:1007EC0076FA01220421944801F071FA00220821C2
:1007FC00914801F06CFA002210218F4801F067FA41
:10080C00012220218C4801F062FA002240218A4802
:10081C0001F05DFA0CE17B68032B23D1002201214E
:10082C00854801F054FA00220221834801F04FFA66
:10083C0000220421804801F04AFA002208217E4857
:10084C0001F045FA012210217B4801F040FA012207
:10085C002021794801F03BFA00224021764801F032
:10086C0036FAE5E07B68042B23D101220121724882
:10087C0001F02DFA002202216F4801F028FA002223
:10088C0004216D4801F023FA012208216A4801F085
:10089C001EFA01221021684801F019FA00222021C9
:1008AC00654801F014FA00224021634801F00FFA68
:1008BC00BEE07B68052B23D1002201215E4801F0AC
:1008CC0006FA012202215C4801F001FA00220421FF
:1008DC00594801F0FCF900220821574801F0F7F9BA
:1008EC0001221021544801F0F2F900222021524833
:1008FC0001F0EDF9002240214F4801F0E8F997E0B2
:10090C007B68062B23D1002201214B4801F0DFF933
:10091C0001220221484801F0DAF90022042146485C
:10092C0001F0D5F900220821434801F0D0F900224A
:10093C001021414801F0CBF9002220213E4801F062
:10094C00C6F9002240213C4801F0C1F970E07B68F7
:10095C00072B23D100220121374801F0B8F90022DE
:10096C000221354801F0B3F900220421324801F08C
:10097C00AEF901220821304801F0A9F90122102119
:10098C002D4801F0A4F9012220212B4801F09FF9F8
:10099C0001224021284801F09AF949E07B68082B94
:1009AC0023D100220121244801F091F900220221D7
:1009BC00214801F08CF9002204211F4801F087F92D
:1009CC00002208211C4801F082F9002210211A484B
:1009DC0001F07DF900222021174801F078F900225E
:1009EC004021154801F073F922E000220121124840
:1009FC0001F06DF9002202210F4801F068F9002284
:100A0C0004210D4801F063F9002208210A4801F085
:100A1C005EF901221021084801F059F90022202129
:100A2C00054801F054F900224021034801F04FF928
:100A3C0000BF0837BD4680BD000C014080B500AF3B
:100A4C004B4B1B68052B00F28F8001A252F823F050
:100A5C00750A0008BF0A0008E10A0008050B000827
:100A6C002B0B0008510B000800224021414801F0DB
:100A7C002EF9012280213F4801F029F901224FF47F
:100A8C0080713C4801F023F901224FF40071394880
:100A9C0001F01DF901224FF48061374801F017F97C
:100AAC00364B1B681846FFF73DFE314B01221A608E
:100ABC005BE040212F4801F022F980212D4801F004
:100ACC001EF92E4B5B681846FFF72CFE284B0222B2
:100ADC001A604AE08021274801F011F94FF4807127
:100AEC00244801F00CF9254B9B681846FFF71AFEB9
:100AFC001F4B03221A6038E04FF480711D4801F03F
:100B0C00FEF84FF400711B4801F0F9F8184B042261
:100B1C001A601A4BDB681846FFF704FE25E04FF409
:100B2C000071144801F0EBF84FF48061124801F0A9
:100B3C00E6F80F4B05221A60104B1B691846FFF79D
:100B4C00F1FD12E04FF480610B4801F0D8F8402120
:100B5C00084801F0D4F8064B01221A60074B1B68B9
:100B6C001846FFF7DFFD00E000BF00BF80BD00BFEF
:100B7C00C800002000080140000C0140800000204B
:100B8C0080B500AF00224FF48061084801F09FF857
:100B9C0001224FF40061054801F099F801224FF44D
:100BAC008051024801F093F800BF80BD000801405D
:100BBC0080B500AF01224FF48061084801F087F83E
:100BCC0000224FF40061054801F081F801224FF436
:100BDC008051024801F07BF800BF80BD0008014045
:100BEC0080B500AF01224FF48061084801F06FF826
:100BFC0001224FF40061054801F069F800224FF41E
:100C0C008051024801F063F800BF80BD000801402C
:100C1C0080B500AF00224FF40051084801F057F89E
:100C2C0001224FF48041054801F051F801224FF4A4
:100C3C000041024801F04BF800BF80BD00080140A4
:100C4C0080B500AF01224FF40051084801F03FF885
:100C5C0000224FF48041054801F039F801224FF48D
:100C6C000041024801F033F800BF80BD000801408C
:100C7C0080B500AF01224FF40051084801F027F86D
:100C8C0001224FF48041054801F021F800224FF475
:100C9C000041024801F01BF800BF80BD0008014074
:100CAC0080B500AF00224FF48061084801F00FF8C6
:100CBC0000224FF40061054801F009F800224FF4BE
:100CCC008051024801F003F800BF80BD00080140CC
:100CDC0080B500AF01224FF48061084800F0F7FFA7
:100CEC0001224FF40061054800F0F1FF01224FF49E
:100CFC008051024800F0EBFF00BF80BD00080140AE
:100D0C0080B500AF00224FF40051084800F0DFFF1F
:100D1C0000224FF48041054800F0D9FF00224FF427
:100D2C000041024800F0D3FF00BF80BD0008014025
:100D3C0080B500AF01224FF40051084800F0C7FF06
:100D4C0001224FF48041054800F0C1FF01224FF40D
:100D5C000041024800F0BBFF00BF80BD000801400D
:100D6C0080B582B000AF786039607B68082B03D007
:100D7C007B68092B39D072E03B68072B33D801A272
:100D8C0052F823F0B10D0008B70D0008BD0D000896
:100D9C00C30D0008DB0D0008CF0D0008E70D00089F
:100DAC00ED0D0008FFF7ECFE1EE0FFF719FF1BE04E
:100DBC00FFF7FEFE18E04FF480612B4800F09FFF18
:100DCC0012E04FF40061284800F099FF0CE04FF45A
:100DDC008051254800F093FF06E0FFF779FF03E010
:100DEC00FFF75EFF00E000BF39E03B68072B34D80B
:100DFC0001A252F823F000BF250E00082B0E0008AC
:100E0C00310E0008370E00084F0E0008430E000884
:100E1C005B0E0008610E0008FFF7FAFE1EE0FFF7FC
:100E2C0027FF1BE0FFF70CFF18E04FF400510E48B2
:100E3C0000F065FF12E04FF480410B4800F05FFFBB
:100E4C000CE04FF40041084800F059FF06E0FFF7B2
:100E5C006FFF03E0FFF754FF00E000BF00BF00BFCF
:100E6C000837BD4680BD00BF0008014080B500AF0B
:100E7C0000F02CFC00F0D6F900F05CFA00F00EFA51
:100E8C00A24801F081FBFFF705FCFFF759F964203C
:100E9C0000F0BAFBFFF7D4FB142000F0DDFB0120BF
:100EAC0000F09EFB9A4B1B68012B40F067810120E0
:100EBC0000F096FBFFF782FA964B1B68002B40F074
:100ECC00A580944B01221A60934B1B68042B00F2F3
:100EDC009F8001A252F823F0F90E00083D0F000884
:100EEC00730F0008A90F0008DF0F00088A4B0122BE
:100EFC001A608A4B00221A60894B1B68894A13605E
:100F0C00894B1B68894A1360894B1B68894A13609B
:100F1C00FFF7C0FB0120FFF787FBFFF711F96420F7
:100F2C0000F072FBFFF78CFB142000F095FB70E0D7
:100F3C00794B02221A60794B01221A60FFF7AAFB47
:100F4C00FFF790FB322000F073FB774B1B681846C1
:100F5C00FFF752FB744B1B681846FFF759FB022036
:100F6C00FFF762FB55E06C4B03221A606B4B0122BE
:100F7C001A60FFF78FFBFFF769FB322000F058FB7C
:100F8C006B4B1B681846FFF737FB694B1B68184601
:100F9C00FFF73EFB0320FFF747FB3AE05E4B0422D2
:100FAC001A605E4B01221A60FFF774FBFFF766FBB9
:100FBC00322000F03DFB5A4B1B681846FFF71CFB18
:100FCC00574B1B681846FFF723FB0420FFF72CFB3D
:100FDC001FE0514B01221A60504B00221A60504BFB
:100FEC001B68504A1360504B1B68504A1360504B9F
:100FFC001B68504A1360FFF74DFB0120FFF714FBF1
:10100C00FFF79EF8642000F0FFFA02E000BF00E05A
:10101C0000BF404B5B68002B52D13E4B01225A6003
:10102C003D4B1B68042B34D0042B4BDC022B02D021
:10103C00032B17D046E03D4B1B6801333B4A136032
:10104C003A4B1B68632B02DD384B00221A60374B7E
:10105C001B681846FFF7D0FA344B1B681846FFF78D
:10106C00D7FA30E0334B1B680133324A1360314BF3
:10107C001B68632B02DD2F4B00221A602D4B1B6863
:10108C001846FFF7B9FA2B4B1B681846FFF7C0FA46
:10109C0019E0244B1B680133224A1360214B1B6857
:1010AC00632B02DD1F4B00221A601E4B1B68184677
:1010BC00FFF7A2FA1B4B1B681846FFF7A9FA02E0D0
:1010CC0000BF00E000BF134B9B68002B56D1114BA7
:1010DC0001229A60174B1A68124B1B681A44134B67
:1010EC001B689A4228D00C4B1B68042B45D1582006
:1010FC00FFF782FA5820FFF78BFA0820FFF794FAD3
:10110C00FFF7D4FA044B00221A6037E0E800002005
:10111C00400100205C00002094000020CC00002046
:10112C0010000020040000200C0000200000002013
:10113C0014000020080000202D4B1B682D4A136062
:10114C002D4B1B682D4A13602D4B1B682D4A1360C9
:10115C002D4B00221A602D4B00221A602C4B1B6861
:10116C00012B03D02A4B1B68002B07D1FEF7E8FF9D
:10117C004FF47A7000F048FA00E000BF254B1B6872
:10118C00012B08D1642000F03FFA234B1B68002B85
:10119C0001D1FEF7D5FF214B1B68012B1AD1322050
:1011AC0000F046FA1C4B1B68012B13D1184B1B6823
:1011BC00042B0CD0042B0FDC022B02D0032B03D0FE
:1011CC000AE0FFF74FFA08E0FFF740FA05E0FFF7F7
:1011DC0055FA02E000BF00E000BF114B1B68012B69
:1011EC007FF460AEFFF72CFA142000F035FA59E6C4
:1011FC000400002010000020000000200C00002043
:10120C000800002014000020C0000020C4000020B2
:10121C009400002038010020CC0000204801002060
:10122C003C01002080B590B000AF07F118032822D4
:10123C000021184601F064FD3B1D00221A605A6023
:10124C009A60DA601A610223BB610123BB6210232E
:10125C00FB6200237B6307F11803184600F068FD5E
:10126C000346002B01D000F0D1F80F237B60002344
:10127C00BB600023FB6000233B6100237B613B1DB3
:10128C000021184600F0D4FF0346002B01D000F0DB
:10129C00BDF800BF4037BD4680BD000080B586B0AC
:1012AC0000AF07F1080300221A605A609A60DA60F6
:1012BC003B4600221A605A601D4B4FF080421A6068
:1012CC001B4B41F63F725A60194B00229A60184B27
:1012DC000922DA60164B00221A61154B00229A6122
:1012EC00134801F001F90346002B01D000F08EF8F1
:1012FC004FF48053BB6007F1080319460C4801F00A
:10130C0097FA0346002B01D000F080F800233B60D5
:10131C0000237B603B461946054801F063FC0346FD
:10132C00002B01D000F072F800BF1837BD4680BD0D
:10133C00E800002080B586B000AF07F1080300225A
:10134C001A605A609A60DA60284B9B69274A43F00E
:10135C0004039361254B9B6903F004037B607B685A
:10136C00224B9B69214A43F0080393611F4B9B69F5
:10137C0003F008033B603B6800224FF6E0711C4809
:10138C0000F0A5FC002240F27F411A4800F09FFCBF
:10139C001C23BB600023FB6001233B6107F10803A6
:1013AC001946134800F002FB4FF6E073BB600123B3
:1013BC00FB6000233B6102237B6107F108031946A4
:1013CC000B4800F0F3FA40F27F43BB600123FB6053
:1013DC0000233B6102237B6107F108031946054892
:1013EC0000F0E4FA00BF1837BD4680BD0010024083
:1013FC0000080140000C014080B582B000AF78605D
:10140C0000F098F800BF0837BD4680BD80B400AF2F
:10141C0072B600BFFEE7000080B485B000AF154B7C
:10142C009B69144A43F001039361124B9B6903F0CF
:10143C000103BB60BB680F4BDB690E4A43F0805362
:10144C00D3610C4BDB6903F080537B607B680A4BE8
:10145C005B68FB60FB6823F0E063FB60FB6843F0B8
:10146C008063FB60044AFB68536000BF1437BD46C1
:10147C0080BC7047001002400000014080B584B071
:10148C0000AF78607B681B68B3F1804F13D10C4BB5
:10149C00DB690B4A43F00103D361094BDB6903F0B1
:1014AC000103FB60FB68002200211C2000F047FABE
:1014BC001C2000F060FA00BF1037BD4680BD00BF95
:1014CC000010024080B400AFFEE780B400AFFEE72E
:1014DC0080B400AFFEE780B400AFFEE780B400AF8D
:1014EC00FEE780B400AF00BFBD4680BC704780B43F
:1014FC0000AF00BFBD4680BC704780B400AF00BFDA
:10150C00BD4680BC704780B500AF00F025F900BF28
:10151C0080BD000080B500AF024801F081F800BF2B
:10152C0080BD00BFE800002080B400AF00BFBD4606
:10153C0080BC704780B400AF214B1B68002B0BDDC7
:10154C001F4B1B68013B1E4A13601D4B1B68002B75
:10155C0002DC1C4B01221A601B4B1B68002B0BDDA1
:10156C00194B1B68013B184A1360174B1B68002B67
:10157C0002DC164B01221A60154B1B68002B0BDD8D
:10158C00134B1B68013B124A1360114B1B68002B59
:10159C0002DC104B01221A600F4B1B68002B0BDD79
:1015AC000D4B1B68013B0C4A13600B4B1B68002B4B
:1015BC0002DC0A4B01221A6000BFBD4680BC70479A
:1015CC0034010020400100204C0100203801002093
:1015DC003001002048010020440100203C01002083
:1015EC0080B483B000AF7860054A7B681360054B0C
:1015FC0000221A6000BF0C37BD4680BC704700BF8C
:10160C00340100204001002080B483B000AF78602A
:10161C00054A7B681360054B00221A6000BF0C372B
:10162C00BD4680BC704700BF4C0100203801002033
:10163C0080B483B000AF7860054A7B681360054BBB
:10164C0000221A6000BF0C37BD4680BC704700BF3B
:10165C00300100204801002080B483B000AF7860D6
:10166C00054A7B681360054B00221A6000BF0C37DB
:10167C00BD4680BC704700BF440100203C010020E7
:10168C00FFF752FF0B480C490C4A002302E0D458D8
:10169C00C4500433C4188C42F9D3094A094C0023B2
:1016AC0001E013600432A242FBD301F005FBFFF70B
:1016BC00DDFB704700000020A4000020602D000816
:1016CC00A400002054010020FEE7000080B500AF0C
:1016DC00084B1B68074A43F010031360032000F00B
:1016EC0023F90F2000F008F8FFF796FE00231846A8
:1016FC0080BD00BF0020024080B582B000AF786092
:10170C00124B1A68124B1B7819464FF47A73B3FBC1
:10171C00F1F3B2FBF3F3184600F03BF90346002B50
:10172C0001D001230EE07B680F2B0AD800227968C8
:10173C004FF0FF3000F003F9064A7B68136000237A
:10174C0000E0012318460837BD4680BD98000020F4
:10175C00A00000209C00002080B400AF054B1B783B
:10176C001A46054B1B681344034A136000BFBD4661
:10177C0080BC7047A00000205001002080B400AF56
:10178C00024B1B681846BD4680BC704750010020B8
:10179C0080B485B000AF78607B6803F00703FB6012
:1017AC000C4BDB68BB60BA684FF6FF031340BB60A1
:1017BC00FB681A02BB68134343F0BF6343F4003366
:1017CC00BB60044ABB68D36000BF1437BD4680BC05
:1017DC00704700BF00ED00E080B400AF044BDB6845
:1017EC001B0A03F007031846BD4680BC704700BFB8
:1017FC0000ED00E080B483B000AF0346FB7197F9B5
:10180C000730002B0BDBFB7903F01F02064997F91D
:10181C0007305B09012000FA02F241F8232000BFD7
:10182C000C37BD4680BC704700E100E080B483B04B
:10183C0000AF03463960FB7197F90730002B0ADBC8
:10184C003B68DAB20C4997F907301201D2B20B445B
:10185C0083F800230AE03B68DAB20849FB7903F00D
:10186C000F03043B1201D2B20B441A7600BF0C37A3
:10187C00BD4680BC704700BF00E100E000ED00E019
:10188C0080B489B000AFF860B9607A60FB6803F08F
:10189C000703FB61FB69C3F10703042B28BF042377
:1018AC00BB61FB690433062B02D9FB69033B00E0E7
:1018BC0000237B614FF0FF32BB6902FA03F3DA437A
:1018CC00BB681A407B699A404FF0FF317B6901FA83
:1018DC0003F3D9437B680B40134318462437BD46AA
:1018EC0080BC704780B582B000AF78607B68013BEC
:1018FC00B3F1807F01D301230FE00A4A7B68013BDF
:10190C0053600F214FF0FF30FFF790FF054B002283
:10191C009A60044B07221A60002318460837BD460C
:10192C0080BD00BF10E000E080B582B000AF7860F1
:10193C007868FFF72DFF00BF0837BD4680BD80B526
:10194C0086B000AF0346B9607A60FB7300237B61FD
:10195C00FFF742FF78617A68B9687869FFF790FF02
:10196C00024697F90F3011461846FFF75FFF00BF8C
:10197C001837BD4680BD80B582B000AF0346FB7101
:10198C0097F907301846FFF735FF00BF0837BD46FB
:10199C0080BD80B582B000AF78607868FFF7A2FF99
:1019AC00034618460837BD4680BD000080B48BB096
:1019BC0000AF7860396000237B6200233B6248E112
:1019CC0001227B6A02FA03F3FB613B681B68FA692C
:1019DC001340BB61BA69FB699A4240F037813B689E
:1019EC005B68A34A93425ED0A14A934275D8A14A40
:1019FC00934258D09F4A93426FD89F4A934252D0F9
:101A0C009D4A934269D89D4A93424CD09B4A93423B
:101A1C0063D89B4A934246D0994A93425DD8122B85
:101A2C002AD8122B59D801A252F823F0B31A000865
:101A3C008D1A00089F1A0008E11A0008E71A00081E
:101A4C00E71A0008E71A0008E71A0008E71A000866
:101A5C00E71A0008E71A0008E71A0008E71A000856
:101A6C00E71A0008E71A0008E71A0008E71A000846
:101A7C00951A0008A91A0008824A934213D02CE048
:101A8C003B68DB683B6229E03B68DB6804333B6204
:101A9C0024E03B68DB6808333B621FE03B68DB6893
:101AAC000C333B621AE03B689B68002B02D1042389
:101ABC003B6213E03B689B68012B05D108233B621A
:101ACC007B68FA691A6109E008233B627B68FA6952
:101ADC005A6103E000233B6200E000BFBB69FF2BAF
:101AEC0001D87B6801E07B6804337B61BB69FF2B09
:101AFC0002D87B6A9B0002E07B6A083B9B003B613F
:101B0C007B691A680F213B6901FA03F3DB431A4026
:101B1C00396A3B6901FA03F31A437B691A603B6823
:101B2C005B6803F08053002B00F09080564B9B6950
:101B3C00554A43F001039361534B9B6903F0010336
:101B4C00BB60BB68514A7B6A9B08023352F8233056
:101B5C00FB607B6A03F003039B000F2202FA03F382
:101B6C00DB43FA681340FB607B68494A93420DD013
:101B7C007B68484A934207D07B68474A934201D11D
:101B8C00022304E0032302E0012300E000237A6A2D
:101B9C0002F0030292009340FA681343FB603B4946
:101BAC007B6A9B080233FA6841F823203B685B6828
:101BBC0003F48013002B06D0384B9A683749BB6965
:101BCC0013438B6006E0354B9A68BB69DB433349A2
:101BDC0013408B603B685B6803F40013002B06D04A
:101BEC002E4BDA682D49BB691343CB6006E02B4BB7
:101BFC00DA68BB69DB4329491340CB603B685B68FF
:101C0C0003F40033002B06D0244B5A682349BB69DC
:101C1C0013434B6006E0214B5A68BB69DB431F49F9
:101C2C0013404B603B685B6803F48033002B06D099
:101C3C001A4B1A681949BB6913430B6006E0174B22
:101C4C001A68BB69DB43154913400B607B6A01338F
:101C5C007B623B681A687B6A22FA03F3002B7FF4E1
:101C6C00AFAE00BF00BF2C37BD4680BC704700BF75
:101C7C000000321000003110000022100000211072
:101C8C000000121000001110001002400000014072
:101C9C0000080140000C014000100140000401400C
:101CAC0080B485B000AF78600B467B807B689A6807
:101CBC007B881340002B02D00123FB7301E000232F
:101CCC00FB73FB7B18461437BD4680BC704780B451
:101CDC0083B000AF78600B467B8013467B707B78BB
:101CEC00002B03D07A887B681A6103E07B881A0486
:101CFC007B681A6100BF0C37BD4680BC704780B44E
:101D0C0085B000AF78600B467B807B68DB68FB603E
:101D1C007A88FB6813401A04FB68D9437B880B4014
:101D2C001A437B681A6100BF1437BD4680BC7047EC
:101D3C0080B586B000AF78607B68002B01D10123A1
:101D4C006CE27B681B6803F00103002B00F08780BA
:101D5C00924B5B6803F00C03042B0CD08F4B5B682D
:101D6C0003F00C03082B12D18C4B5B6803F480330B
:101D7C00B3F5803F0BD1894B1B6803F40033002B68
:101D8C006CD07B685B68002B68D1012346E27B68D2
:101D9C005B68B3F5803F06D1804B1B687F4A43F4E8
:101DAC00803313602EE07B685B68002B0CD17B4B7F
:101DBC001B687A4A23F480331360784B1B68774A8C
:101DCC0023F4802313601DE07B685B68B3F5A02FC0
:101DDC000CD1724B1B68714A43F4802313606F4B18
:101DEC001B686E4A43F4803313600BE06B4B1B682B
:101DFC006A4A23F480331360684B1B68674A23F4E8
:101E0C00802313607B685B68002B13D0FFF7B6FC54
:101E1C00386108E0FFF7B2FC02463B69D31A642B29
:101E2C0001D90323FAE15D4B1B6803F40033002B4B
:101E3C00F0D014E0FFF7A2FC386108E0FFF79EFC3D
:101E4C0002463B69D31A642B01D90323E6E1534BB9
:101E5C001B6803F40033002BF0D100E000BF7B685B
:101E6C001B6803F00203002B63D04C4B5B6803F040
:101E7C000C03002B0BD0494B5B6803F00C03082BB5
:101E8C001CD1464B5B6803F48033002B16D1434BBB
:101E9C001B6803F00203002B05D07B681B69012B28
:101EAC0001D00123BAE13D4B1B6823F0F8027B689B
:101EBC005B69DB00394913430B603AE07B681B69B3
:101ECC00002B20D0364B01221A60FFF757FC3861EB
:101EDC0008E0FFF753FC02463B69D31A022B01D9E9
:101EEC0003239BE12D4B1B6803F00203002BF0D066
:101EFC002A4B1B6823F0F8027B685B69DB002749DF
:101F0C0013430B6015E0264B00221A60FFF736FCDA
:101F1C00386108E0FFF732FC02463B69D31A022B0A
:101F2C0001D903237AE11D4B1B6803F00203002B3C
:101F3C00F0D17B681B6803F00803002B3AD07B6858
:101F4C009B69002B19D0174B01221A60FFF716FC66
:101F5C00386108E0FFF712FC02463B69D31A022BEA
:101F6C0001D903235AE10D4B5B6A03F00203002BEA
:101F7C00F0D0012000F09AFA1CE00A4B00221A6003
:101F8C00FFF7FCFB38610FE0FFF7F8FB02463B69FB
:101F9C00D31A022B08D9032340E100BF00100240E2
:101FAC0000004242800442429E4B5B6A03F00203F3
:101FBC00002BE9D17B681B6803F00403002B00F0B5
:101FCC00A6800023FB75974BDB6903F08053002B35
:101FDC000DD1944BDB69934A43F08053D361914B01
:101FEC00DB6903F08053BB60BB680123FB758E4B30
:101FFC001B6803F48073002B18D18B4B1B688A4A27
:10200C0043F480731360FFF7B9FB386108E0FFF706
:10201C00B5FB02463B69D31A642B01D90323FDE0BF
:10202C00814B1B6803F48073002BF0D07B68DB685A
:10203C00012B06D17B4B1B6A7A4A43F001031362D6
:10204C002DE07B68DB68002B0CD1764B1B6A754A44
:10205C0023F001031362734B1B6A724A23F00403CF
:10206C0013621CE07B68DB68052B0CD16D4B1B6A83
:10207C006C4A43F0040313626A4B1B6A694A43F0CF
:10208C00010313620BE0674B1B6A664A23F00103E2
:10209C001362644B1B6A634A23F0040313627B686C
:1020AC00DB68002B15D0FFF769FB38610AE0FFF7FE
:1020BC0065FB02463B69D31A41F28832934201D93F
:1020CC000323ABE0574B1B6A03F00203002BEED04B
:1020DC0014E0FFF753FB38610AE0FFF74FFB0246B1
:1020EC003B69D31A41F28832934201D9032395E01C
:1020FC004C4B1B6A03F00203002BEED1FB7D012B32
:10210C0005D1484BDB69474A23F08053D3617B6888
:10211C00DB69002B00F08180424B5B6803F00C0301
:10212C00082B61D07B68DB69022B46D13F4B002228
:10213C001A60FFF723FB386108E0FFF71FFB02462C
:10214C003B69D31A022B01D9032367E0354B1B687B
:10215C0003F00073002BF0D17B681B6AB3F5803F52
:10216C0008D1304B5B6823F400327B689B682D49A7
:10217C0013434B602B4B5B6823F474127B68196A16
:10218C007B685B6A0B43274913434B60274B012247
:10219C001A60FFF7F3FA386108E0FFF7EFFA02462E
:1021AC003B69D31A022B01D9032337E01D4B1B6863
:1021BC0003F00073002BF0D02FE01C4B00221A60B0
:1021CC00FFF7DCFA386108E0FFF7D8FA02463B6902
:1021DC00D31A022B01D9032320E0124B1B6803F006
:1021EC000073002BF0D118E07B68DB69012B01D167
:1021FC00012313E00B4B5B68FB60FB6803F480323C
:10220C007B681B6A9A4206D1FB6803F470127B68E8
:10221C005B6A9A4201D0012300E00023184618376C
:10222C00BD4680BD0010024000700040600042427C
:10223C0080B584B000AF786039607B68002B01D129
:10224C000123D0E06A4B1B6803F007033A689A42FB
:10225C0010D9674B1B6823F0070265493B68134391
:10226C000B60634B1B6803F007033A689A4201D07A
:10227C000123B8E07B681B6803F00203002B20D01D
:10228C007B681B6803F00403002B05D0594B5B687B
:10229C00584A43F4E06353607B681B6803F00803FF
:1022AC00002B05D0534B5B68524A43F46053536088
:1022BC00504B5B6823F0F0027B689B684D491343DD
:1022CC004B607B681B6803F00103002B40D07B68DC
:1022DC005B68012B07D1474B1B6803F40033002BC1
:1022EC0015D101237FE07B685B68022B07D1414B42
:1022FC001B6803F00073002B09D1012373E03D4BE5
:10230C001B6803F00203002B01D101236BE0394B56
:10231C005B6823F003027B685B68364913434B60B0
:10232C00FFF72CFAF8600AE0FFF728FA0246FB6880
:10233C00D31A41F28832934201D9032353E02D4B37
:10234C005B6803F00C027B685B689B009A42EBD1E4
:10235C00274B1B6803F007033A689A4210D2244BB0
:10236C001B6823F0070222493B6813430B60204B88
:10237C001B6803F007033A689A4201D0012332E04C
:10238C007B681B6803F00403002B08D0194B5B68B7
:10239C0023F4E0627B68DB68164913434B607B686F
:1023AC001B6803F00803002B09D0124B5B6823F465
:1023BC0060527B681B69DB000E4913434B6000F0D5
:1023CC0021F802460B4B5B681B0903F00F030A490B
:1023DC00CB5C22FA03F3094A1360094B1B681846BD
:1023EC00FFF78AF9002318461037BD4680BD00BFA1
:1023FC000020024000100240342D000898000020FC
:10240C009C00002080B487B000AF0023FB60002349
:10241C00BB6000237B6100237B6000233B611E4B70
:10242C005B68FB60FB6803F00C03042B02D0082BE9
:10243C0003D027E0194B3B6127E0FB689B0C03F0B2
:10244C000F03174AD35C7B60FB6803F48033002BCB
:10245C0010D0114B5B685B0C03F00103114AD35C89
:10246C00BB607B680D4A02FB03F2BB68B2FBF3F363
:10247C007B6104E07B680C4A02FB03F37B617B69A4
:10248C003B6102E0054B3B6100BF3B6918461C37C2
:10249C00BD4680BC704700BF0010024000127A009D
:1024AC00442D0008542D000800093D0080B485B06F
:1024BC0000AF78600A4B1B680A4AA2FB03235B0A35
:1024CC007A6802FB03F3FB6000BFFB685A1EFA60DC
:1024DC00002BF9D100BF00BF1437BD4680BC70473C
:1024EC0098000020D34D621080B582B000AF7860A8
:1024FC007B68002B01D1012341E07B6893F83D30D0
:10250C00DBB2002B06D17B68002283F83C20786874
:10251C00FEF7B4FF7B68022283F83D207B681A68C3
:10252C007B6804331946104600F06EFA7B68012272
:10253C0083F846207B68012283F83E207B680122C9
:10254C0083F83F207B68012283F840207B680122BE
:10255C0083F841207B68012283F842207B680122AA
:10256C0083F843207B68012283F844207B68012296
:10257C0083F845207B68012283F83D200023184610
:10258C000837BD4680BD000080B485B000AF7860D0
:10259C007B6893F83D30DBB2012B01D0012335E091
:1025AC007B68022283F83D207B681B68DA687B68B5
:1025BC001B6842F00102DA607B681B68164A934282
:1025CC0009D07B681B68B3F1804F04D07B681B6813
:1025DC00124A934211D17B681B689B6803F0070376
:1025EC00FB60FB68062B10D07B681B681A687B6845
:1025FC001B6842F001021A6007E07B681B681A68CE
:10260C007B681B6842F001021A60002318461437DD
:10261C00BD4680BC704700BF002C01400004004048
:10262C0080B582B000AF78607B681B681B6903F0D3
:10263C000203022B22D17B681B68DB6803F00203C8
:10264C00022B1BD17B681B686FF002021A617B683E
:10265C0001221A777B681B689B6903F00303002B2C
:10266C0003D0786800F0B4F905E0786800F0A7F9B9
:10267C00786800F0B6F97B6800221A777B681B68D3
:10268C001B6903F00403042B22D17B681B68DB68F5
:10269C0003F00403042B1BD17B681B686FF004024E
:1026AC001A617B6802221A777B681B689B6903F4AA
:1026BC004073002B03D0786800F08AF905E0786845
:1026CC0000F07DF9786800F08CF97B6800221A77AD
:1026DC007B681B681B6903F00803082B22D17B68FD
:1026EC001B68DB6803F00803082B1BD17B681B6895
:1026FC006FF008021A617B6804221A777B681B68EA
:10270C00DB6903F00303002B03D0786800F060F959
:10271C0005E0786800F053F9786800F062F97B689E
:10272C0000221A777B681B681B6903F01003102BBF
:10273C0022D17B681B68DB6803F01003102B1BD1C4
:10274C007B681B686FF010021A617B6808221A778D
:10275C007B681B68DB6903F44073002B03D078683B
:10276C0000F036F905E0786800F029F9786800F097
:10277C0038F97B6800221A777B681B681B6903F0A9
:10278C000103012B0ED17B681B68DB6803F001038E
:10279C00012B07D17B681B686FF001021A61786806
:1027AC00FEF72AFE7B681B681B6903F08003802BF5
:1027BC000ED17B681B68DB6803F08003802B07D18C
:1027CC007B681B686FF080021A61786800F06BFA06
:1027DC007B681B681B6903F04003402B0ED17B68A0
:1027EC001B68DB6803F04003402B07D17B681B6838
:1027FC006FF040021A61786800F0FCF87B681B6887
:10280C001B6903F02003202B0ED17B681B68DB684F
:10281C0003F02003202B07D17B681B686FF020028C
:10282C001A61786800F036FA00BF0837BD4680BDE3
:10283C0080B584B000AF786039600023FB737B688F
:10284C0093F83C30012B01D10223B4E07B680122C8
:10285C0083F83C207B68022283F83D207B681B6850
:10286C009B68BB60BB6823F07703BB60BB6823F439
:10287C007F43BB607B681B68BA689A603B681B68C7
:10288C00B3F5005F3ED0B3F5005F00F28780B3F57F
:10289C00805F00F08680B3F5805F7FD8702B1AD0F4
:1028AC00702B7BD8602B50D0602B77D8502B3CD022
:1028BC00502B73D8402B58D0402B6FD8302B64D072
:1028CC00302B6BD8202B60D0202B67D8002B5CD002
:1028DC00102B5AD062E07B6818683B6899683B689B
:1028EC005A683B68DB6800F05EF97B681B689B6884
:1028FC00BB60BB6843F07703BB607B681B68BA683E
:10290C009A604FE07B6818683B6899683B685A6826
:10291C003B68DB6800F047F97B681B689A687B684A
:10292C001B6842F480429A603CE07B6818683B6804
:10293C0059683B68DB681A4600F0BEF87B681B6878
:10294C005021184600F015F92CE07B6818683B689C
:10295C0059683B68DB681A4600F0DCF87B681B683A
:10296C006021184600F005F91CE07B6818683B688C
:10297C0059683B68DB681A4600F09EF87B681B6858
:10298C004021184600F0F5F80CE07B681A683B68AB
:10299C001B681946104600F0ECF803E00123FB73AA
:1029AC0000E000BF7B68012283F83D207B68002299
:1029BC0083F83C20FB7B18461037BD4680BD80B4A5
:1029CC0083B000AF786000BF0C37BD4680BC704749
:1029DC0080B483B000AF786000BF0C37BD4680BCBC
:1029EC00704780B483B000AF786000BF0C37BD4631
:1029FC0080BC704780B483B000AF786000BF0C37E8
:102A0C00BD4680BC7047000080B485B000AF7860D4
:102A1C0039607B681B68FB607B68254A934207D052
:102A2C007B68B3F1804F03D07B68224A934208D174
:102A3C00FB6823F07003FB603B685B68FA68134328
:102A4C00FB607B681A4A934207D07B68B3F1804FD6
:102A5C0003D07B68174A934208D1FB6823F4407378
:102A6C00FB603B68DB68FA681343FB60FB6823F090
:102A7C0080023B685B691343FB607B68FA681A60F1
:102A8C003B689A687B68DA623B681A687B689A6272
:102A9C007B68074A934203D13B681A697B681A63C7
:102AAC007B6801225A6100BF1437BD4680BC704759
:102ABC00002C01400004004080B487B000AFF860E7
:102ACC00B9607A60FB681B6A7B61FB681B6A23F048
:102ADC000102FB681A62FB689B693B613B6923F04E
:102AEC00F0033B617B681B013A6913433B617B69D3
:102AFC0023F00A037B617A69BB6813437B61FB6833
:102B0C003A699A61FB687A691A6200BF1C37BD4644
:102B1C0080BC704780B487B000AFF860B9607A6051
:102B2C00FB681B6A7B61FB681B6A23F01002FB6865
:102B3C001A62FB689B693B613B6923F470433B6100
:102B4C007B681B033A6913433B617B6923F0A00349
:102B5C007B61BB681B017A6913437B61FB683A6933
:102B6C009A61FB687A691A6200BF1C37BD4680BC4B
:102B7C00704780B485B000AF786039607B689B6823
:102B8C00FB60FB6823F07003FB603A68FB6813433F
:102B9C0043F00703FB607B68FA689A6000BF143748
:102BAC00BD4680BC704780B487B000AFF860B96098
:102BBC007A603B60FB689B687B617B6923F47F4395
:102BCC007B613B681A027B681A43BB6813437A69C2
:102BDC0013437B61FB687A699A6000BF1C37BD4662
:102BEC0080BC704780B485B000AF786039607B687A
:102BFC0093F83C30012B01D1022341E07B68012288
:102C0C0083F83C207B68022283F83D207B681B689C
:102C1C005B68FB607B681B689B68BB60FB6823F090
:102C2C007003FB603B681B68FA681343FB607B68AE
:102C3C001B68FA685A607B681B68144A934209D077
:102C4C007B681B68B3F1804F04D07B681B68104A0B
:102C5C0093420CD1BB6823F08003BB603B685B687C
:102C6C00BA681343BB607B681B68BA689A607B6860
:102C7C00012283F83D207B68002283F83C2000234E
:102C8C0018461437BD4680BC704700BF002C01406D
:102C9C000004004080B483B000AF786000BF0C37F4
:102CAC00BD4680BC704780B483B000AF786000BF75
:102CBC000C37BD4680BC704770B500260C4D0D4CD2
:102CCC00641BA410A64209D100F022F800260A4D7C
:102CDC000A4C641BA410A64205D170BD55F8043BE8
:102CEC0098470136EEE755F8043B98470136F2E772
:102CFC00582D0008582D0008582D00085C2D000890
:102D0C0003460244934200D1704703F8011BF9E7D4
:102D1C00F8B500BFF8BC08BC9E467047F8B500BFBC
:082D2C00F8BC08BC9E4670478C
:102D34000000000000000000010203040607080967
:102D440002030405060708090A0B0C0D0E0F1010E8
:042D54000102000078
:042D5800310100083D
:042D5C000D0100085D
:102D6000070000000500000002000000070000004E
:102D700005000000020000000008014000080140BA
:102D800000080140040008001000000001000000DD
:102D9000010000000100000001000000010000002F
:102DA000010000000100000001000000010000001F
:102DB000010000000100000001000000010000000F
:102DC0000100000001000000640000006400000039
:102DD0006400000014000000140000001400000053
:102DE00001000000020000000300000004000000D9
:102DF00001000000010000000024F40010000000A9
:042E000001000000CD
:040000050800168D4C
:00000001FF
